:020000040000fa
:080000000002040000000000f2
:020000040000fa
:1000080090020000900200009002000090020000a0
:100018009002000090020000900200009002000090
:100028009002000090020000900200009002000080
:100038009002000090020000900200009002000070
:020000040000fa
:020000040000fa
:100400004f8020000e7f22000e01880000000000b7
:100410000c000700205d20000100200011000700f3
:10042000000020000000e000020032000000020096
:1004300000000000a8050200000000000040da00f3
:100440000000fe004440a900400020000000e00041
:100450000300320000002000a00188004440a800f2
:100460000000060091018800800078000000eb0089
:1004700015003700e280400032a0b4009101ba00bc
:10048000e280400032a0b4009102ba00e280400055
:1004900032a0b4000002eb00472bde00f507b200eb
:1004a000602ce10004003a000059eb008301e900f0
:1004b000fdff3e00040037006128e100010032002a
:1004c0000082eb00040007001101ba000200e00006
:1004d000e8ff3a00000006003159ba008301e90044
:1004e0000c0032002159ba008301e90008003200f3
:1004f0000400e00003003a00e280400032a0b400b3
:10050000f5ff370011d9ba008301e900faff3a007c
:100510008100e800e180400032a0b4000000060045
:100520000040da000000fe000000fa0099a0a900d7
:1005300001e6a90089a0a9000080fa0000000600d9
:100540000a00fa00000f78001107980022079800af
:1005500033079800044f98000000eb0070308800cb
:1005600099a0a90089a0a900d1058000f0f82f006a
:1005700000806000d00588001e00780000308800f0
:100580001e009000103088002e009000603088001f
:100590003e009000203088000e48900067406000c8
:1005a00067406000674060000080fb0067006000fb
:1005b0004400dd00d2058000f1f82f0081006100c9
:1005c00000807000d00588000e4890000080fb007d
:1005d000680060004380de000040780061406000f9
:1005e0000080fb00610060004d00dd00c20480005f
:1005f000f1ff2d008100610000807000c0048800c0
:1006000001e6a8000080fa00000006000200fa00df
:10061000000f78001e007800203088000080fa006b
:0406200000000600d0
:020000040000fa
:08062400424300000000000049
:020000040000fa
:10062c000a00fa0030302800000f7800f03f20005c
:10063c001007980010002000200798000000eb0025
:10064c00300798000000eb0040079800b3ff07004c
:10065c004e0090000040780000427800be019000ef
:10066c002e0190009e0090001e007800b1ff070044
:10067c000080fa00000006000000fa00e8ff070006
:10068c0000cc25005101200000408800114088005a
:10069c00004080001140800000007800bc00070082
:1006ac00406a2000010020000040880011408800b2
:1006bc008003200040308800004080001140800002
:1006cc0000007800b200070000cc2500510120008a
:1006dc0000408800114088000040800011408000dc
:1006ec0000007800aa000700406a200001002000ea
:1006fc000040880011408800c00020004030880075
:10070c00004080001140800000007800a00007002d
:10071c0000cc2500510120000040880011408800c9
:10072c000040800011408000000078009800070015
:10073c00007d20000100200000408800114088004e
:10074c0010002000403088000040800011408000e4
:10075c00000078008e00070000cc2500510120001d
:10076c00004088001140880000408000114080004b
:10077c000000780086000700007d200001002000aa
:10078c000040880011408800600020004030880044
:10079c000040800011408000000078007c000700c1
:1007ac0048000700020007000080fa000000060065
:1007bc000000fa00007d20000100200000408800ad
:1007cc00114088000000eb008dff07002000200086
:1007dc004030880006003700004080001140800047
:1007ec0061005000e08058000040880011408800f3
:1007fc000040800011408000e00f5000e08f580056
:10080c00f5ff3a000080fa00000006000000fa0034
:10081c00007d20000100200000408800114088006d
:10082c000000eb0076ff0700000820004030880035
:10083c00060037000040800011408000610050002d
:10084c00e080580000408800114088000040800083
:10085c0011408000e00f5000e08f5800f5ff3a0087
:10086c000080fa00000006000000fa00007d200065
:10087c000100200000408800114088000000eb00bf
:10088c005fff0700000c2000403088000600370096
:10089c00004080001140800061005000e080580052
:1008ac00004088001140880000408000114080000a
:1008bc00e00f5000e08f5800f5ff3a000080fa007e
:1008cc00000006000000fa00007d2000010020005e
:1008dc0000408800114088000000eb0048ff070032
:1008ec0010002000403088000600370000408000d7
:1008fc001140800061005000e080580000408800ea
:10090c00114088000040800011408000e00f500032
:10091c00e08f5800f5ff3a000080fa000000060056
:10092c000200fa00004f7800406a2000010020000d
:10093c0000408800114088001000200030ff0700a4
:10094c001e00fb004030880006003700004080008d
:10095c001140800061005000e08058000040880089
:10096c00114088000040800011408000e00f5000d2
:10097c00e08f5800f5ff3a00000000000000000076
:10098c0000000000000000000080fa0000000600db
:10099c000200fa00000f7800010037001e0fe9007a
:1009ac001e007800e00f5000fcff3a000080fa00b7
:1009bc00000006000400fa00100798000040eb004d
:1009cc00004f780010c0b300104798008fff07004d
:1009dc00110037001e009000104078009e0090001f
:1009ec008100e80011079800cdff07001e40780039
:1009fc00f34f5000070036001e409000e14f5000ae
:100a0c0004003a0098ff07001e4090000040e800e8
:100a1c00104798001e4fe8001e0090001040780010
:100a2c00e04f5000ebff3a000080fa000000060097
:100a3c000200fa00000f7800040037001e00780056
:100a4c00104078001e0fe800b5ff07001e0078006c
:100a5c0010407800e04f5000f8ff3a000080fa0098
:100a6c00000006000400fa0020479800007d2000da
:100a7c000100200000408800114088000000eb00bd
:100a8c00dffe0700ae40900000ccb30000cf70003a
:100a9c009e4078000180fb00403088000600370043
:100aac00004080001140800061005000e080580040
:100abc0000408800114088000040800011408000f8
:100acc00e00f5000e08f5800f5ff3a000080fa006c
:100adc00000006000400fa0020479800007d20006a
:100aec000100200000408800114088000000eb004d
:100afc00c3fe0700ae40900000c8b30000cf7000ea
:100b0c009e4078000180fb004030880006003700d2
:100b1c00004080001140800061005000e0805800cf
:100b2c000040880011408800004080001140800087
:100b3c00e00f5000e08f5800f5ff3a000080fa00fb
:100b4c00000006000000fa000001eb006004200029
:100b5c0071052000237420008049780081497800b9
:100b6c008249780000002300203a88000000eb0046
:100b7c00403a8800c0fe070052ff070023ff070021
:100b8c0010c4b30066ff070037ff070020312800b0
:080b9c0088ff0700ffff37008e
:020000040000fa
:100ba4000008000004000000000000000000000035
:020000040000fa
:020000040002f8
:04aff800bff900009d
:020000040000fa
:020000040002f8
:04affc00ff7f0000d3
:00000001FF
